{
  "_format": "hh-sol-artifact-1",
  "contractName": "MDRRegistrarController",
  "sourceName": "contracts/MDRRegistrarController.sol",
  "abi": [
    {
      "inputs": [
        {
          "internalType": "contract BaseRegistrarImplementation",
          "name": "_base",
          "type": "address"
        },
        {
          "internalType": "contract PriceOracle",
          "name": "_prices",
          "type": "address"
        },
        {
          "internalType": "uint256",
          "name": "_minCommitmentAge",
          "type": "uint256"
        },
        {
          "internalType": "uint256",
          "name": "_maxCommitmentAge",
          "type": "uint256"
        }
      ],
      "stateMutability": "nonpayable",
      "type": "constructor"
    },
    {
      "anonymous": false,
      "inputs": [
        {
          "indexed": false,
          "internalType": "string",
          "name": "name",
          "type": "string"
        },
        {
          "indexed": true,
          "internalType": "bytes32",
          "name": "label",
          "type": "bytes32"
        },
        {
          "indexed": true,
          "internalType": "address",
          "name": "owner",
          "type": "address"
        },
        {
          "indexed": false,
          "internalType": "uint256",
          "name": "cost",
          "type": "uint256"
        },
        {
          "indexed": false,
          "internalType": "uint256",
          "name": "expires",
          "type": "uint256"
        }
      ],
      "name": "NameRegistered",
      "type": "event"
    },
    {
      "anonymous": false,
      "inputs": [
        {
          "indexed": false,
          "internalType": "string",
          "name": "name",
          "type": "string"
        },
        {
          "indexed": true,
          "internalType": "bytes32",
          "name": "label",
          "type": "bytes32"
        },
        {
          "indexed": false,
          "internalType": "uint256",
          "name": "cost",
          "type": "uint256"
        },
        {
          "indexed": false,
          "internalType": "uint256",
          "name": "expires",
          "type": "uint256"
        }
      ],
      "name": "NameRenewed",
      "type": "event"
    },
    {
      "anonymous": false,
      "inputs": [
        {
          "indexed": true,
          "internalType": "address",
          "name": "oracle",
          "type": "address"
        }
      ],
      "name": "NewPriceOracle",
      "type": "event"
    },
    {
      "anonymous": false,
      "inputs": [
        {
          "indexed": true,
          "internalType": "address",
          "name": "previousOwner",
          "type": "address"
        },
        {
          "indexed": true,
          "internalType": "address",
          "name": "newOwner",
          "type": "address"
        }
      ],
      "name": "OwnershipTransferred",
      "type": "event"
    },
    {
      "inputs": [],
      "name": "MIN_REGISTRATION_DURATION",
      "outputs": [
        {
          "internalType": "uint256",
          "name": "",
          "type": "uint256"
        }
      ],
      "stateMutability": "view",
      "type": "function"
    },
    {
      "inputs": [
        {
          "internalType": "string",
          "name": "name",
          "type": "string"
        }
      ],
      "name": "available",
      "outputs": [
        {
          "internalType": "bool",
          "name": "",
          "type": "bool"
        }
      ],
      "stateMutability": "view",
      "type": "function"
    },
    {
      "inputs": [
        {
          "internalType": "bytes32",
          "name": "commitment",
          "type": "bytes32"
        }
      ],
      "name": "commit",
      "outputs": [],
      "stateMutability": "nonpayable",
      "type": "function"
    },
    {
      "inputs": [
        {
          "internalType": "bytes32",
          "name": "",
          "type": "bytes32"
        }
      ],
      "name": "commitments",
      "outputs": [
        {
          "internalType": "uint256",
          "name": "",
          "type": "uint256"
        }
      ],
      "stateMutability": "view",
      "type": "function"
    },
    {
      "inputs": [
        {
          "internalType": "string",
          "name": "name",
          "type": "string"
        },
        {
          "internalType": "address",
          "name": "owner",
          "type": "address"
        },
        {
          "internalType": "bytes32",
          "name": "secret",
          "type": "bytes32"
        }
      ],
      "name": "makeCommitment",
      "outputs": [
        {
          "internalType": "bytes32",
          "name": "",
          "type": "bytes32"
        }
      ],
      "stateMutability": "pure",
      "type": "function"
    },
    {
      "inputs": [
        {
          "internalType": "string",
          "name": "name",
          "type": "string"
        },
        {
          "internalType": "address",
          "name": "owner",
          "type": "address"
        },
        {
          "internalType": "bytes32",
          "name": "secret",
          "type": "bytes32"
        },
        {
          "internalType": "address",
          "name": "resolver",
          "type": "address"
        },
        {
          "internalType": "address",
          "name": "addr",
          "type": "address"
        }
      ],
      "name": "makeCommitmentWithConfig",
      "outputs": [
        {
          "internalType": "bytes32",
          "name": "",
          "type": "bytes32"
        }
      ],
      "stateMutability": "pure",
      "type": "function"
    },
    {
      "inputs": [],
      "name": "maxCommitmentAge",
      "outputs": [
        {
          "internalType": "uint256",
          "name": "",
          "type": "uint256"
        }
      ],
      "stateMutability": "view",
      "type": "function"
    },
    {
      "inputs": [],
      "name": "minCommitmentAge",
      "outputs": [
        {
          "internalType": "uint256",
          "name": "",
          "type": "uint256"
        }
      ],
      "stateMutability": "view",
      "type": "function"
    },
    {
      "inputs": [],
      "name": "owner",
      "outputs": [
        {
          "internalType": "address",
          "name": "",
          "type": "address"
        }
      ],
      "stateMutability": "view",
      "type": "function"
    },
    {
      "inputs": [
        {
          "internalType": "string",
          "name": "name",
          "type": "string"
        },
        {
          "internalType": "address",
          "name": "owner",
          "type": "address"
        },
        {
          "internalType": "uint256",
          "name": "duration",
          "type": "uint256"
        },
        {
          "internalType": "bytes32",
          "name": "secret",
          "type": "bytes32"
        }
      ],
      "name": "register",
      "outputs": [],
      "stateMutability": "payable",
      "type": "function"
    },
    {
      "inputs": [
        {
          "internalType": "string",
          "name": "name",
          "type": "string"
        },
        {
          "internalType": "address",
          "name": "owner",
          "type": "address"
        },
        {
          "internalType": "uint256",
          "name": "duration",
          "type": "uint256"
        },
        {
          "internalType": "bytes32",
          "name": "secret",
          "type": "bytes32"
        },
        {
          "internalType": "address",
          "name": "resolver",
          "type": "address"
        },
        {
          "internalType": "address",
          "name": "addr",
          "type": "address"
        }
      ],
      "name": "registerWithConfig",
      "outputs": [],
      "stateMutability": "payable",
      "type": "function"
    },
    {
      "inputs": [
        {
          "internalType": "string",
          "name": "name",
          "type": "string"
        },
        {
          "internalType": "uint256",
          "name": "duration",
          "type": "uint256"
        }
      ],
      "name": "renew",
      "outputs": [],
      "stateMutability": "payable",
      "type": "function"
    },
    {
      "inputs": [],
      "name": "renounceOwnership",
      "outputs": [],
      "stateMutability": "nonpayable",
      "type": "function"
    },
    {
      "inputs": [
        {
          "internalType": "string",
          "name": "name",
          "type": "string"
        },
        {
          "internalType": "uint256",
          "name": "duration",
          "type": "uint256"
        }
      ],
      "name": "rentPrice",
      "outputs": [
        {
          "internalType": "uint256",
          "name": "",
          "type": "uint256"
        }
      ],
      "stateMutability": "view",
      "type": "function"
    },
    {
      "inputs": [
        {
          "internalType": "uint256",
          "name": "_minCommitmentAge",
          "type": "uint256"
        },
        {
          "internalType": "uint256",
          "name": "_maxCommitmentAge",
          "type": "uint256"
        }
      ],
      "name": "setCommitmentAges",
      "outputs": [],
      "stateMutability": "nonpayable",
      "type": "function"
    },
    {
      "inputs": [
        {
          "internalType": "contract PriceOracle",
          "name": "_prices",
          "type": "address"
        }
      ],
      "name": "setPriceOracle",
      "outputs": [],
      "stateMutability": "nonpayable",
      "type": "function"
    },
    {
      "inputs": [
        {
          "internalType": "bytes4",
          "name": "interfaceID",
          "type": "bytes4"
        }
      ],
      "name": "supportsInterface",
      "outputs": [
        {
          "internalType": "bool",
          "name": "",
          "type": "bool"
        }
      ],
      "stateMutability": "pure",
      "type": "function"
    },
    {
      "inputs": [
        {
          "internalType": "address",
          "name": "newOwner",
          "type": "address"
        }
      ],
      "name": "transferOwnership",
      "outputs": [],
      "stateMutability": "nonpayable",
      "type": "function"
    },
    {
      "inputs": [
        {
          "internalType": "string",
          "name": "name",
          "type": "string"
        }
      ],
      "name": "valid",
      "outputs": [
        {
          "internalType": "bool",
          "name": "",
          "type": "bool"
        }
      ],
      "stateMutability": "pure",
      "type": "function"
    },
    {
      "inputs": [],
      "name": "withdraw",
      "outputs": [],
      "stateMutability": "nonpayable",
      "type": "function"
    }
  ],
  "bytecode": "0x60806040523480156200001157600080fd5b5060405162002c8638038062002c8683398181016040528101906200003791906200020f565b620000576200004b620000fe60201b60201c565b6200010660201b60201c565b8181116200006457600080fd5b83600160006101000a81548173ffffffffffffffffffffffffffffffffffffffff021916908373ffffffffffffffffffffffffffffffffffffffff16021790555082600260006101000a81548173ffffffffffffffffffffffffffffffffffffffff021916908373ffffffffffffffffffffffffffffffffffffffff1602179055508160038190555080600481905550505050506200032f565b600033905090565b60008060009054906101000a900473ffffffffffffffffffffffffffffffffffffffff169050816000806101000a81548173ffffffffffffffffffffffffffffffffffffffff021916908373ffffffffffffffffffffffffffffffffffffffff1602179055508173ffffffffffffffffffffffffffffffffffffffff168173ffffffffffffffffffffffffffffffffffffffff167f8be0079c531659141344cd1fd0a4f28419497f9722a3daafe3b4186f6b6457e060405160405180910390a35050565b600081519050620001db81620002e1565b92915050565b600081519050620001f281620002fb565b92915050565b600081519050620002098162000315565b92915050565b600080600080608085870312156200022657600080fd5b60006200023687828801620001ca565b94505060206200024987828801620001e1565b93505060406200025c87828801620001f8565b92505060606200026f87828801620001f8565b91505092959194509250565b60006200028882620002b7565b9050919050565b60006200029c826200027b565b9050919050565b6000620002b0826200027b565b9050919050565b600073ffffffffffffffffffffffffffffffffffffffff82169050919050565b6000819050919050565b620002ec816200028f565b8114620002f857600080fd5b50565b6200030681620002a3565b81146200031257600080fd5b50565b6200032081620002d7565b81146200032c57600080fd5b50565b612947806200033f6000396000f3fe60806040526004361061011f5760003560e01c80638d839ffe116100a0578063ce1e09c011610064578063ce1e09c0146103cb578063f14fcbc8146103f6578063f2fde38b1461041f578063f49826be14610448578063f7a16963146104855761011f565b80638d839ffe146102df5780638da5cb5b1461030a5780639791c09714610335578063acf1a84114610372578063aeb8ce9b1461038e5761011f565b80637e324479116100e75780637e324479146101f5578063839df9451461021e57806383e7f6ff1461025b57806385f6d155146102985780638a95b09f146102b45761011f565b806301ffc9a7146101245780633ccfd60b146101615780633d86c52f14610178578063530e784f146101b5578063715018a6146101de575b600080fd5b34801561013057600080fd5b5061014b60048036038101906101469190611cd6565b6104a1565b6040516101589190612328565b60405180910390f35b34801561016d57600080fd5b506101766106a7565b005b34801561018457600080fd5b5061019f600480360381019061019a9190611ed1565b61076c565b6040516101ac9190612343565b60405180910390f35b3480156101c157600080fd5b506101dc60048036038101906101d79190611d28565b61088f565b005b3480156101ea57600080fd5b506101f36109b4565b005b34801561020157600080fd5b5061021c6004803603810190610217919061207e565b610a3c565b005b34801561022a57600080fd5b5061024560048036038101906102409190611c84565b610aca565b6040516102529190612445565b60405180910390f35b34801561026757600080fd5b50610282600480360381019061027d9190612001565b610ae2565b60405161028f9190612445565b60405180910390f35b6102b260048036038101906102ad9190611d51565b610c54565b005b3480156102c057600080fd5b506102c9610cae565b6040516102d69190612445565b60405180910390f35b3480156102eb57600080fd5b506102f4610cb5565b6040516103019190612445565b60405180910390f35b34801561031657600080fd5b5061031f610cbb565b60405161032c91906122d6565b60405180910390f35b34801561034157600080fd5b5061035c60048036038101906103579190611e29565b610ce4565b6040516103699190612328565b60405180910390f35b61038c60048036038101906103879190611dd1565b610cfa565b005b34801561039a57600080fd5b506103b560048036038101906103b09190611e29565b610ecc565b6040516103c29190612328565b60405180910390f35b3480156103d757600080fd5b506103e0610fa0565b6040516103ed9190612445565b60405180910390f35b34801561040257600080fd5b5061041d60048036038101906104189190611c84565b610fa6565b005b34801561042b57600080fd5b5061044660048036038101906104419190611c32565b610fed565b005b34801561045457600080fd5b5061046f600480360381019061046a9190611e6a565b6110e5565b60405161047c9190612343565b60405180910390f35b61049f600480360381019061049a9190611f60565b6110fe565b005b60007f01ffc9a7a5cef8baa21ed3c5c0d7e23accb804b619e9333b597f47a0d84076e27bffffffffffffffffffffffffffffffffffffffffffffffffffffffff1916827bffffffffffffffffffffffffffffffffffffffffffffffffffffffff1916148061061657507facf1a8418b97267ffdb4c11281360744af0ddfe62846b256a04a02acee3a53c37f85f6d1554d9d3ed5c2776e29804063f395dfd65a8dc71f4d1cb6f073d7ee75a37ff14fcbc8f6996b31406143e2613e60bde3c1118cfe166c0aa27ba40ef1033df57ff49826be766d3cc8dc7e4aab3f18eb3d339eb3bce85a7b9144119bbe997b2cc37faeb8ce9b70d5d3f3fba501c34cd61a54703dbe3cfb25bd75d3574635f9ea76837f83e7f6ff8df5fd22801ca995afba5d2bc5cac5264a339adb4a410c5da6c4332418181818187bffffffffffffffffffffffffffffffffffffffffffffffffffffffff1916827bffffffffffffffffffffffffffffffffffffffffffffffffffffffff1916145b806106a057507f3d86c52f15403f1a062ec90b8fe0792e3be0a9cb236cd8ee4ec4b45821bd2faa7ff7a169630bfe39d181bbd2e0b758ee9f1a6ddc0eca0932c13225406d06d41653187bffffffffffffffffffffffffffffffffffffffffffffffffffffffff1916827bffffffffffffffffffffffffffffffffffffffffffffffffffffffff1916145b9050919050565b6106af611762565b73ffffffffffffffffffffffffffffffffffffffff166106cd610cbb565b73ffffffffffffffffffffffffffffffffffffffff1614610723576040517f08c379a000000000000000000000000000000000000000000000000000000000815260040161071a90612425565b60405180910390fd5b3373ffffffffffffffffffffffffffffffffffffffff166108fc479081150290604051600060405180830381858888f19350505050158015610769573d6000803e3d6000fd5b50565b60008086805190602001209050600073ffffffffffffffffffffffffffffffffffffffff168473ffffffffffffffffffffffffffffffffffffffff161480156107e15750600073ffffffffffffffffffffffffffffffffffffffff168373ffffffffffffffffffffffffffffffffffffffff16145b15610819578086866040516020016107fb93929190612254565b60405160208183030381529060405280519060200120915050610886565b600073ffffffffffffffffffffffffffffffffffffffff168473ffffffffffffffffffffffffffffffffffffffff16141561085357600080fd5b808685858860405160200161086c9594939291906121f5565b604051602081830303815290604052805190602001209150505b95945050505050565b610897611762565b73ffffffffffffffffffffffffffffffffffffffff166108b5610cbb565b73ffffffffffffffffffffffffffffffffffffffff161461090b576040517f08c379a000000000000000000000000000000000000000000000000000000000815260040161090290612425565b60405180910390fd5b80600260006101000a81548173ffffffffffffffffffffffffffffffffffffffff021916908373ffffffffffffffffffffffffffffffffffffffff160217905550600260009054906101000a900473ffffffffffffffffffffffffffffffffffffffff1673ffffffffffffffffffffffffffffffffffffffff167ff261845a790fe29bbd6631e2ca4a5bdc83e6eed7c3271d9590d97287e00e912360405160405180910390a250565b6109bc611762565b73ffffffffffffffffffffffffffffffffffffffff166109da610cbb565b73ffffffffffffffffffffffffffffffffffffffff1614610a30576040517f08c379a0000000000000000000000000000000000000000000000000000000008152600401610a2790612425565b60405180910390fd5b610a3a600061176a565b565b610a44611762565b73ffffffffffffffffffffffffffffffffffffffff16610a62610cbb565b73ffffffffffffffffffffffffffffffffffffffff1614610ab8576040517f08c379a0000000000000000000000000000000000000000000000000000000008152600401610aaf90612425565b60405180910390fd5b81600381905550806004819055505050565b60056020528060005260406000206000915090505481565b60008083805190602001209050600260009054906101000a900473ffffffffffffffffffffffffffffffffffffffff1673ffffffffffffffffffffffffffffffffffffffff166350e9a71585600160009054906101000a900473ffffffffffffffffffffffffffffffffffffffff1673ffffffffffffffffffffffffffffffffffffffff1663d6e4fa868560001c6040518263ffffffff1660e01b8152600401610b8c9190612445565b60206040518083038186803b158015610ba457600080fd5b505afa158015610bb8573d6000803e3d6000fd5b505050506040513d601f19601f82011682018060405250810190610bdc9190612055565b866040518463ffffffff1660e01b8152600401610bfb939291906123c7565b60206040518083038186803b158015610c1357600080fd5b505afa158015610c27573d6000803e3d6000fd5b505050506040513d601f19601f82011682018060405250810190610c4b9190612055565b91505092915050565b610ca785858080601f016020809104026020016040519081016040528093929190818152602001838380828437600081840152601f19601f820116905080830192505050505050508484846000806110fe565b5050505050565b6224ea0081565b60035481565b60008060009054906101000a900473ffffffffffffffffffffffffffffffffffffffff16905090565b60006003610cf18361182e565b10159050919050565b6000610d4a84848080601f016020809104026020016040519081016040528093929190818152602001838380828437600081840152601f19601f8201169050808301925050505050505083610ae2565b905080341015610d5957600080fd5b60008484604051610d6b9291906122bd565b604051809103902090506000600160009054906101000a900473ffffffffffffffffffffffffffffffffffffffff1673ffffffffffffffffffffffffffffffffffffffff1663c475abff8360001c866040518363ffffffff1660e01b8152600401610dd79291906124c0565b602060405180830381600087803b158015610df157600080fd5b505af1158015610e05573d6000803e3d6000fd5b505050506040513d601f19601f82011682018060405250810190610e299190612055565b905082341115610e86573373ffffffffffffffffffffffffffffffffffffffff166108fc8434610e5991906125bc565b9081150290604051600060405180830381858888f19350505050158015610e84573d6000803e3d6000fd5b505b817f3da24c024582931cfaf8267d8ed24d13a82a8068d5bd337d30ec45cea4e506ae87878685604051610ebc9493929190612387565b60405180910390a2505050505050565b60008082805190602001209050610ee283610ce4565b8015610f985750600160009054906101000a900473ffffffffffffffffffffffffffffffffffffffff1673ffffffffffffffffffffffffffffffffffffffff166396e494e88260001c6040518263ffffffff1660e01b8152600401610f479190612445565b60206040518083038186803b158015610f5f57600080fd5b505afa158015610f73573d6000803e3d6000fd5b505050506040513d601f19601f82011682018060405250810190610f979190611c5b565b5b915050919050565b60045481565b426004546005600084815260200190815260200160002054610fc89190612566565b10610fd257600080fd5b42600560008381526020019081526020016000208190555050565b610ff5611762565b73ffffffffffffffffffffffffffffffffffffffff16611013610cbb565b73ffffffffffffffffffffffffffffffffffffffff1614611069576040517f08c379a000000000000000000000000000000000000000000000000000000000815260040161106090612425565b60405180910390fd5b600073ffffffffffffffffffffffffffffffffffffffff168173ffffffffffffffffffffffffffffffffffffffff1614156110d9576040517f08c379a00000000000000000000000000000000000000000000000000000000081526004016110d090612405565b60405180910390fd5b6110e28161176a565b50565b60006110f584848460008061076c565b90509392505050565b600061110d878786868661076c565b9050600061111c888784611a09565b905060008880519060200120905060008160001c905060008073ffffffffffffffffffffffffffffffffffffffff168773ffffffffffffffffffffffffffffffffffffffff16146115ba57600160009054906101000a900473ffffffffffffffffffffffffffffffffffffffff1673ffffffffffffffffffffffffffffffffffffffff1663fca247ac83308c6040518463ffffffff1660e01b81526004016111c693929190612489565b602060405180830381600087803b1580156111e057600080fd5b505af11580156111f4573d6000803e3d6000fd5b505050506040513d601f19601f820116820180604052508101906112189190612055565b90506000600160009054906101000a900473ffffffffffffffffffffffffffffffffffffffff1673ffffffffffffffffffffffffffffffffffffffff1663ddf7fcb06040518163ffffffff1660e01b815260040160206040518083038186803b15801561128457600080fd5b505afa158015611298573d6000803e3d6000fd5b505050506040513d601f19601f820116820180604052508101906112bc9190611cad565b846040516020016112ce929190612291565b604051602081830303815290604052805190602001209050600160009054906101000a900473ffffffffffffffffffffffffffffffffffffffff1673ffffffffffffffffffffffffffffffffffffffff166383c563d36040518163ffffffff1660e01b815260040160206040518083038186803b15801561134e57600080fd5b505afa158015611362573d6000803e3d6000fd5b505050506040513d601f19601f820116820180604052508101906113869190611cff565b73ffffffffffffffffffffffffffffffffffffffff16631896f70a828a6040518363ffffffff1660e01b81526004016113c092919061235e565b600060405180830381600087803b1580156113da57600080fd5b505af11580156113ee573d6000803e3d6000fd5b50505050600073ffffffffffffffffffffffffffffffffffffffff168773ffffffffffffffffffffffffffffffffffffffff1614611494578773ffffffffffffffffffffffffffffffffffffffff1663d5fa2b0082896040518363ffffffff1660e01b815260040161146192919061235e565b600060405180830381600087803b15801561147b57600080fd5b505af115801561148f573d6000803e3d6000fd5b505050505b600160009054906101000a900473ffffffffffffffffffffffffffffffffffffffff1673ffffffffffffffffffffffffffffffffffffffff166328ed4f6c848d6040518363ffffffff1660e01b81526004016114f1929190612460565b600060405180830381600087803b15801561150b57600080fd5b505af115801561151f573d6000803e3d6000fd5b50505050600160009054906101000a900473ffffffffffffffffffffffffffffffffffffffff1673ffffffffffffffffffffffffffffffffffffffff166323b872dd308d866040518463ffffffff1660e01b8152600401611582939291906122f1565b600060405180830381600087803b15801561159c57600080fd5b505af11580156115b0573d6000803e3d6000fd5b50505050506116a7565b600073ffffffffffffffffffffffffffffffffffffffff168673ffffffffffffffffffffffffffffffffffffffff16146115f357600080fd5b600160009054906101000a900473ffffffffffffffffffffffffffffffffffffffff1673ffffffffffffffffffffffffffffffffffffffff1663fca247ac838c8c6040518463ffffffff1660e01b815260040161165293929190612489565b602060405180830381600087803b15801561166c57600080fd5b505af1158015611680573d6000803e3d6000fd5b505050506040513d601f19601f820116820180604052508101906116a49190612055565b90505b8973ffffffffffffffffffffffffffffffffffffffff16837fca6abbe9d7f11422cb6ca7629fbf6fe9efb1c621f71ce8f02b9f2a230097404f8d87856040516116f2939291906123c7565b60405180910390a383341115611755573373ffffffffffffffffffffffffffffffffffffffff166108fc853461172891906125bc565b9081150290604051600060405180830381858888f19350505050158015611753573d6000803e3d6000fd5b505b5050505050505050505050565b600033905090565b60008060009054906101000a900473ffffffffffffffffffffffffffffffffffffffff169050816000806101000a81548173ffffffffffffffffffffffffffffffffffffffff021916908373ffffffffffffffffffffffffffffffffffffffff1602179055508173ffffffffffffffffffffffffffffffffffffffff168173ffffffffffffffffffffffffffffffffffffffff167f8be0079c531659141344cd1fd0a4f28419497f9722a3daafe3b4186f6b6457e060405160405180910390a35050565b60008060008084519050600092505b808210156119fe576000858381518110611880577f4e487b7100000000000000000000000000000000000000000000000000000000600052603260045260246000fd5b602001015160f81c60f81b9050608060f81b817effffffffffffffffffffffffffffffffffffffffffffffffffffffffffffff191610156118cf576001836118c89190612566565b92506119ea565b60e060f81b817effffffffffffffffffffffffffffffffffffffffffffffffffffffffffffff191610156119115760028361190a9190612566565b92506119e9565b60f060f81b817effffffffffffffffffffffffffffffffffffffffffffffffffffffffffffff191610156119535760038361194c9190612566565b92506119e8565b60f8801b817effffffffffffffffffffffffffffffffffffffffffffffffffffffffffffff191610156119945760048361198d9190612566565b92506119e7565b60fc60f81b817effffffffffffffffffffffffffffffffffffffffffffffffffffffffffffff191610156119d6576005836119cf9190612566565b92506119e6565b6006836119e39190612566565b92505b5b5b5b5b5082806119f690612705565b93505061183d565b829350505050919050565b6000426003546005600085815260200190815260200160002054611a2d9190612566565b1115611a3857600080fd5b426004546005600085815260200190815260200160002054611a5a9190612566565b11611a6457600080fd5b611a6d84610ecc565b611a7657600080fd5b60056000838152602001908152602001600020600090556000611a998585610ae2565b90506224ea00841015611aab57600080fd5b80341015611ab857600080fd5b809150509392505050565b6000611ad6611ad18461250e565b6124e9565b905082815260208101848484011115611aee57600080fd5b611af9848285612692565b509392505050565b600081359050611b1081612870565b92915050565b600081519050611b2581612887565b92915050565b600081359050611b3a8161289e565b92915050565b600081519050611b4f8161289e565b92915050565b600081359050611b64816128b5565b92915050565b600081519050611b79816128cc565b92915050565b600081359050611b8e816128e3565b92915050565b60008083601f840112611ba657600080fd5b8235905067ffffffffffffffff811115611bbf57600080fd5b602083019150836001820283011115611bd757600080fd5b9250929050565b600082601f830112611bef57600080fd5b8135611bff848260208601611ac3565b91505092915050565b600081359050611c17816128fa565b92915050565b600081519050611c2c816128fa565b92915050565b600060208284031215611c4457600080fd5b6000611c5284828501611b01565b91505092915050565b600060208284031215611c6d57600080fd5b6000611c7b84828501611b16565b91505092915050565b600060208284031215611c9657600080fd5b6000611ca484828501611b2b565b91505092915050565b600060208284031215611cbf57600080fd5b6000611ccd84828501611b40565b91505092915050565b600060208284031215611ce857600080fd5b6000611cf684828501611b55565b91505092915050565b600060208284031215611d1157600080fd5b6000611d1f84828501611b6a565b91505092915050565b600060208284031215611d3a57600080fd5b6000611d4884828501611b7f565b91505092915050565b600080600080600060808688031215611d6957600080fd5b600086013567ffffffffffffffff811115611d8357600080fd5b611d8f88828901611b94565b95509550506020611da288828901611b01565b9350506040611db388828901611c08565b9250506060611dc488828901611b2b565b9150509295509295909350565b600080600060408486031215611de657600080fd5b600084013567ffffffffffffffff811115611e0057600080fd5b611e0c86828701611b94565b93509350506020611e1f86828701611c08565b9150509250925092565b600060208284031215611e3b57600080fd5b600082013567ffffffffffffffff811115611e5557600080fd5b611e6184828501611bde565b91505092915050565b600080600060608486031215611e7f57600080fd5b600084013567ffffffffffffffff811115611e9957600080fd5b611ea586828701611bde565b9350506020611eb686828701611b01565b9250506040611ec786828701611b2b565b9150509250925092565b600080600080600060a08688031215611ee957600080fd5b600086013567ffffffffffffffff811115611f0357600080fd5b611f0f88828901611bde565b9550506020611f2088828901611b01565b9450506040611f3188828901611b2b565b9350506060611f4288828901611b01565b9250506080611f5388828901611b01565b9150509295509295909350565b60008060008060008060c08789031215611f7957600080fd5b600087013567ffffffffffffffff811115611f9357600080fd5b611f9f89828a01611bde565b9650506020611fb089828a01611b01565b9550506040611fc189828a01611c08565b9450506060611fd289828a01611b2b565b9350506080611fe389828a01611b01565b92505060a0611ff489828a01611b01565b9150509295509295509295565b6000806040838503121561201457600080fd5b600083013567ffffffffffffffff81111561202e57600080fd5b61203a85828601611bde565b925050602061204b85828601611c08565b9150509250929050565b60006020828403121561206757600080fd5b600061207584828501611c1d565b91505092915050565b6000806040838503121561209157600080fd5b600061209f85828601611c08565b92505060206120b085828601611c08565b9150509250929050565b6120c3816125f0565b82525050565b6120da6120d5826125f0565b61274e565b82525050565b6120e981612602565b82525050565b6120f88161260e565b82525050565b61210f61210a8261260e565b612760565b82525050565b6000612121838561254a565b935061212e838584612692565b82840190509392505050565b60006121468385612555565b9350612153838584612692565b61215c836127da565b840190509392505050565b60006121728261253f565b61217c8185612555565b935061218c8185602086016126a1565b612195816127da565b840191505092915050565b60006121ad602683612555565b91506121b8826127f8565b604082019050919050565b60006121d0602083612555565b91506121db82612847565b602082019050919050565b6121ef81612688565b82525050565b600061220182886120fe565b60208201915061221182876120c9565b60148201915061222182866120c9565b60148201915061223182856120c9565b60148201915061224182846120fe565b6020820191508190509695505050505050565b600061226082866120fe565b60208201915061227082856120c9565b60148201915061228082846120fe565b602082019150819050949350505050565b600061229d82856120fe565b6020820191506122ad82846120fe565b6020820191508190509392505050565b60006122ca828486612115565b91508190509392505050565b60006020820190506122eb60008301846120ba565b92915050565b600060608201905061230660008301866120ba565b61231360208301856120ba565b61232060408301846121e6565b949350505050565b600060208201905061233d60008301846120e0565b92915050565b600060208201905061235860008301846120ef565b92915050565b600060408201905061237360008301856120ef565b61238060208301846120ba565b9392505050565b600060608201905081810360008301526123a281868861213a565b90506123b160208301856121e6565b6123be60408301846121e6565b95945050505050565b600060608201905081810360008301526123e18186612167565b90506123f060208301856121e6565b6123fd60408301846121e6565b949350505050565b6000602082019050818103600083015261241e816121a0565b9050919050565b6000602082019050818103600083015261243e816121c3565b9050919050565b600060208201905061245a60008301846121e6565b92915050565b600060408201905061247560008301856121e6565b61248260208301846120ba565b9392505050565b600060608201905061249e60008301866121e6565b6124ab60208301856120ba565b6124b860408301846121e6565b949350505050565b60006040820190506124d560008301856121e6565b6124e260208301846121e6565b9392505050565b60006124f3612504565b90506124ff82826126d4565b919050565b6000604051905090565b600067ffffffffffffffff821115612529576125286127ab565b5b612532826127da565b9050602081019050919050565b600081519050919050565b600081905092915050565b600082825260208201905092915050565b600061257182612688565b915061257c83612688565b9250827fffffffffffffffffffffffffffffffffffffffffffffffffffffffffffffffff038211156125b1576125b061277c565b5b828201905092915050565b60006125c782612688565b91506125d283612688565b9250828210156125e5576125e461277c565b5b828203905092915050565b60006125fb82612668565b9050919050565b60008115159050919050565b6000819050919050565b60007fffffffff0000000000000000000000000000000000000000000000000000000082169050919050565b600061264f826125f0565b9050919050565b6000612661826125f0565b9050919050565b600073ffffffffffffffffffffffffffffffffffffffff82169050919050565b6000819050919050565b82818337600083830152505050565b60005b838110156126bf5780820151818401526020810190506126a4565b838111156126ce576000848401525b50505050565b6126dd826127da565b810181811067ffffffffffffffff821117156126fc576126fb6127ab565b5b80604052505050565b600061271082612688565b91507fffffffffffffffffffffffffffffffffffffffffffffffffffffffffffffffff8214156127435761274261277c565b5b600182019050919050565b60006127598261276a565b9050919050565b6000819050919050565b6000612775826127eb565b9050919050565b7f4e487b7100000000000000000000000000000000000000000000000000000000600052601160045260246000fd5b7f4e487b7100000000000000000000000000000000000000000000000000000000600052604160045260246000fd5b6000601f19601f8301169050919050565b60008160601b9050919050565b7f4f776e61626c653a206e6577206f776e657220697320746865207a65726f206160008201527f6464726573730000000000000000000000000000000000000000000000000000602082015250565b7f4f776e61626c653a2063616c6c6572206973206e6f7420746865206f776e6572600082015250565b612879816125f0565b811461288457600080fd5b50565b61289081612602565b811461289b57600080fd5b50565b6128a78161260e565b81146128b257600080fd5b50565b6128be81612618565b81146128c957600080fd5b50565b6128d581612644565b81146128e057600080fd5b50565b6128ec81612656565b81146128f757600080fd5b50565b61290381612688565b811461290e57600080fd5b5056fea2646970667358221220b8d1eec43d43ad34f6bb97c4ac8e99ea882f8cefaad71bda23cd73ac2cd56dcb64736f6c63430008040033",
  "linkReferences": {},
  "deployedLinkReferences": {}
}